:020000022000DC
:10700000000004205D730200457302004773020014
:10701000497302004B7302004D7302000000000030
:107020000000000000000000000000004F7302009C
:1070300051730200000000005373020055730200F8
:1070400041970200577302003D9C020057730200F3
:107050005773020057730200919A0200577302009F
:1070600057730200577302005773020057730200F0
:1070700057730200577302005773020057730200E0
:1070800057730200FD870200577302005773020016
:107090005773020057730200E9C2020057730200DF
:1070A00057730200577302005773020057730200B0
:1070B0005773020057730200000000000000000038
:1070C0005773020057730200577302005773020090
:1070D0005773020057730200577302005773020080
:1070E000577302005773020057730200000000003C
:1070F00000000000577302000000000057730200F8
:10710000000000000000000000000000000000007F
:10711000000000000000000000000000000000006F
:10712000000000000000000000000000000000005F
:10713000000000000000000000000000000000004F
:10714000000000000000000000000000000000003F
:10715000000000000000000000000000000000002F
:10716000000000000000000000000000000000001F
:10717000000000000000000000000000000000000F
:1071800000000000000000000000000000000000FF
:1071900000000000000000000000000000000000EF
:1071A00000000000000000000000000000000000DF
:1071B00000000000000000000000000000000000CF
:1071C00000000000000000000000000000000000BF
:1071D00000000000000000000000000000000000AF
:1071E000000000000000000000000000000000009F
:1071F000000000000000000000000000000000008F
:10720000314932480A1A02D0072291438D4630494B
:1072100030480A1A06D00722914381F309880222D6
:1072200082F314882C482D492D4A00F03CF82D4853
:107230002D492E4A00F037F82D482E492E4A00F0ED
:1072400032F82E482E492F4A00F02DF82E482F49AB
:107250002F4A00F028F82F482F49304A00F023F831
:107260002F483049304A00F01EF83048304900229B
:1072700000F024F82F483049002200F01FF82F4A70
:1072800090471F481F49884205D00268043003B464
:10729000904703BCF7E700208646EC46002000211B
:1072A000274A9047FEE7884207D0521A05D0037854
:1072B00001300B700131013AF9D17047884202D098
:1072C00002700130FAE770470000042000E003205C
:1072D000000004200000042064E10200A843002014
:1072E000DC490020B8730200B8730200C4CE02006B
:1072F00064E10200A8430020A843002018D0020047
:1073000018D0020018D0020018D0020018D00200D5
:1073100018D0020018D0020018D0020063E1020069
:1073200098E70200DC490020DC490020DC4900200D
:10733000705F0020705F0020705F00208573020086
:10734000A9AA0200FEE7FEE7FEE7FEE7FEE7FEE78A
:10735000FEE7FEE7FEE7FEE700F002B8FFF7FCBF3E
:107360000F484FF00701884385460E4880470E4876
:10737000016841F470010160BFF34F8FBFF36F8F5D
:10738000FFF73EBF09480A490A4A884207D0521A05
:1073900005D0037801300B700131013AF9D1704703
:1073A000000004208D92020088ED00E018D0020059
:0873B000A8430020A8430020BF
:1073B8007047000007B5044B0093044A402300F0CF
:1073C80032F803B05DF804FBD9730200DD490020F0
:1073D8002DE9F84388461446B2B10F4B0F4E0325EA
:1073E800002743F00109224608EB0701002003F0BB
:1073F80071FC0744241A48B933782BB14FF47A400A
:10740800C847013D02D13570BDE8F88301233370C8
:10741800002CE8D1F8E700BF20D00200DC490020AA
:10742800704703F0ABBCF0B595B01D46164608464C
:107438000C4601F089FD1A9B0D93CDE908650025DE
:107448002B46082205A920460A958DF82C500C9544
:1074580001F097FD079B0293069B03939DF8143058
:107468008DF8115003F00302012A1DD1BDF8142034
:10747800059DC3F3C203C2F383168DF81030B20022
:1074880008230EA9204601F07CFDC5F3952508AB1D
:107498000093324602AB0EA9284600F0F3FB2046C3
:1074A80001F056FD15B0F0BD022AF8D1BDF816500E
:1074B800C3F3C203C5F389158DF810300827082DCA
:1074C8002E4628BF08263B4632460EA9204601F024
:1074D80058FDAD1B08AB02AA31460EA8374400F090
:1074E80035FC002DEBD1DAE77047000007B5044BF7
:1074F8000093044A4023FFF796FF03B05DF804FBAE
:10750800617502001E4A002030B5104D0FCD89B0BC
:107518006C460FC495E80F0084E80F004FF0FF3366
:107528000622CDE90023CDE9023309484FF0EB7379
:1075380000226946069302F097F808B100F0FAFDB8
:10754800044B00221A7009B030BD00BF34D00200CD
:10755800A84300201D4A002038B50D4B0D4D0020D2
:1075680018700D4804782D5DD2B21C4665B1043000
:1075780002F0EEFF08B100F0DDFD084B1A7812B1F9
:107588002378002BFBD038BD0C3002F09DFDF1E7CD
:107598005E4A002018510020A84300201D4A002000
:1075A80008B50848084A0378D35C33B1043002F0C0
:1075B80069FFBDE80840FFF7A7BF0C3002F030FDB7
:1075C800F7E700BFA843002018510020FFF79CBF31
:1075D80038B50A4DFFF725FF0421284600F0BAFA0E
:1075E800074B01245C71FFF7F1FF042105F110003E
:1075F80000F0B0FA034B5C7138BD00BFF8CF020051
:10760800BC430020C4430020037813F0040216D0C2
:1076180003F00303012B03D0022B09D0012070478C
:107628000A6800880232C0F3831002440A60F5E752
:107638000B684288023303EB92130B60EEE71046A7
:10764800704700002DE9F04F87B000230446861CE0
:107658000DF107000F4615468DF8073000F05AFF68
:10766800454801683960D0E90132134401335B1A97
:10767800824600F21C4700F5836900F21448B342C1
:107688001CD30020002D73D004F00F039B0143F09E
:10769800050363F30F00DAF80020DAF80830134026
:1076A800033316444AF823009DF80700CAF800601F
:1076B80000F054FF012007B0BDE8F08F01213846E3
:1076C80001F075F9484601F08AF9404601F087F95A
:1076D800DAF80400DAF808B0029000EA0B00033088
:1076E8000AEB800002A9FFF78FFF029B50BB0BEA51
:1076F80003020AEB820203F1020CD26803920133FF
:1077080003EA0B0B0AEB8B0B02F00302012ADBF8EE
:107718000C10CDF808C023D0022A16D08346404664
:1077280001F060F910B1029BCAF804305946384696
:1077380001F03DF9DAE901231344DAF800200133B6
:107748009B1A9CE70BEA0300C9E7BDF80E30C3F3A8
:10775800891303334FEA114B0CEB93030293DEE7D3
:10776800BDF80C30C3F383134FEA114B6344F5E7BC
:10777800A40544F006008EE7304B00200B4B0C4864
:10778800FF2210B59A600022C3F81824C3E900222A
:10779800C3F81424012283F8202401F08EFB044648
:1077A80010B9044801F0F0FC204610BD304B002011
:1077B800A4CF020098D0020030B50A4C71B10A4A31
:1077C8000A49121BD20800239A4201D1002030BD79
:1077D80031F82350854202D00133F5E7034654F8C7
:1077E8003300F4E70CCF0200A4CF0200A843002026
:1077F800094B013903EBC000032909D8DFE801F080
:107808000A020406042070470079704740797047DF
:1078180000207047022070470CCF0200034BD3E9C9
:107828000030C31A58425841704700BF304B0020FF
:107838002DE9F04387B0FFF7F1FF0646002840F036
:10784800F9807D4DC5F81804BFF34F8F6B68AC689D
:1078580002932340033305EB830002A9FFF7D4FE0C
:10786800029B18B1D5F81824002A5FD004EA030255
:10787800991C013305EB8202234005EB8303D26890
:10788800DB68049302F00303022B0392029160D198
:10789800BDF80E306948C3F38917502FB84628BF82
:1078A8004FF0500868F38F1308F10801ADF80E3057
:1078B80001F01BFB0646002800F0A78001F044FBFE
:1078C8000023082203A9304601F051FB029924EA5B
:1078D80001020132B8EB820F4FEA820332D95FFA14
:1078E80088F85BB32140DCB2A8EB040803315FFAE7
:1078F80088F9A046524C05EB8101082342463046E0
:1079080001F035FB34B108F108034A4621463046F8
:1079180001F02DFB029B033703EB97070297D5F87D
:107928001834002B49D1D5F8104459E02A689A42F6
:107938008FD86A60304607B0BDE8F08340491C46DE
:107948009946DAE70C40E11C0823424605EB810121
:10795800DDE7012B59D1BDF80C303848C3F383114A
:10796800062928BF062161F3891302318900ADF881
:107978000C3001F0BAFA0646002846D001F0E4FAC5
:107988000023082203A9304601F0F1FA0027BDF8C8
:107998000C20C2F38312BB00974203F10803BED246
:1079A80002994A1C21400331029205EB810104220D
:1079B800304601F0DCFA0137E9E7304601F0C8FA51
:1079C800FFF72CFF80F00100C6B2B3E7E3685B79EC
:1079D80023B1236831461B6820469847E3681C6832
:1079E800002CF3D1304601F0B3FA0DF107008DF801
:1079F800074000F08FFDD5F818340BB9029B6B6077
:107A08009DF8070000F0AAFDDAE7D5F8104454B94C
:107A18000C4B0D480D49C01AC008000440F0020084
:107A280000F062F8CCE7236820469B689847E36833
:107A38001C68ECE700267DE7304B0020A4CF02004D
:107A48003C4B00200CCF020034CF020081D0020052
:107A58002DE9F74F224D04460F46924601A901220F
:107A68001846D5F808909B46FFF7ECFD20B3019E19
:107A78004FF00008B21CD84508EB020126D119487E
:107A8800002100F065FF80F31000000440EA144074
:107A9800E400731C04F0380403EA090306EA090643
:107AA80044F0010405EB8303033644EA881444EAEE
:107AB8008724D86045F8264095F820341BB1FFF795
:107AC800B7FE0028FBD103B0BDE8F08F09EA010139
:107AD80005EB81015AF82830CB6008F10108CAE7A4
:107AE800304B00204C4F002000231A46FFF7B0BF50
:107AF80007B50123019201AAFFF7AAFF03B05DF8B9
:107B080004FB07B5CDE9002302236A46FFF7A0FF6F
:107B180003B05DF804FB1FB5CDE90123069B039371
:107B280001AA0323FFF794FF05B05DF804FB7FB5B6
:107B3800CDE90023089B0293099B03930A9B0493B6
:107B48000B9B05936A460623FFF782FF07B05DF893
:107B580004FB000030B50F49D1F81024034600207B
:107B6800144634B9DC6820714AB9C1F8103422606F
:107B780030BDE4682579854206D02468F1E7D268EB
:107B8800116821601360F3E701300A28E8D14FF04B
:107B9800FF30EDE7304B0020094A38B50123D2F811
:107BA800104482F820341D4604B938BDE3685D717D
:107BB800236820465B689847E3681C68F4E700BFC1
:107BC800304B002007B503460846197A052911D01D
:107BD8005B7A2BB1094A0A49019000F066FF0198C7
:107BE8000849019000F061FF019803B05DF804EBCB
:107BF80000F050BF002AF8D0F2E700BFA4D002007E
:107C0800A9D002004ADC020030B5C38885B004461A
:107C18000D4633B1144A00921449154A284600F01B
:107C280044FF217A05291DD0637A4BB1A088FFF75C
:107C3800DFFD104B104953F82020284600F035FF8F
:107C4800227A0E4BA08853F8222003920021FFF7D6
:107C5800B3FD039A0A490346284605B0BDE83040FB
:107C680000F023BF05B030BDA4D00200B4D002009C
:107C7800ACD0020030D10200A9D0020054D10200D9
:107C8800CCD002002DE9F04385B01F460C9D00239F
:107C980095F80C902B7306460C46904629463846B4
:107CA800FFF7B2FFB8F1060F09D8DFE808F00412B1
:107CB800181F283340003146284600F0F6FE0022FF
:107CC80029463846FFF77EFF85F80C9005B0BDE8D9
:107CD800F08322683146284600F0E7FEEFE7D4E952
:107CE80000233146284600F0E0FEE8E7A368009349
:107CF8003146D4E90023284600F0D7FEDFE7E368E1
:107D08000193A36800933146D4E90023284600F084
:107D1800CCFED4E723690293E3680193A368009338
:107D28003146D4E90023284600F0BFFEC7E763695F
:107D3800039323690293E3680193A3680093314690
:107D4800D4E90023284600F0B0FEB8E708292DE959
:107D5800F74F80460E4617461C463CD8002593F838
:107D68000C901D7319461046FFF74EFFDFF888A0E8
:107D7800DFF888B0AE4231D918F8052059462046B8
:107D880000F093FE0135082DF4D11949194DDFF89B
:107D980070A0204600F089FE4FF0000B5E4522D906
:107DA80018F80B207E2A05D81046019204F072FCC0
:107DB800019A00B92E225146204600F076FE0BF1BA
:107DC800010BBBF1080FE9D1012221463846FFF724
:107DD800F9FE84F80C9003B0BDE8F08F51462046B8
:107DE80000F063FECEE72946204600F05EFEE6E797
:107DF800E0D00200DED00200DCD00200D6D00200C3
:107E0800E2D00200C30710B507D4F023054A4008A2
:107E1800145C23401943115410BD0901C9B20F2342
:107E2800F4E700BF2050002030B5094B1C78094BFF
:107E3800196800239C4202DC0022104630BD11F86C
:107E48003350854201EBC302F7D00133F2E700BF9C
:107E5800EC4F00204050002013B504460191FFF775
:107E6800E3FF38B143682BB10199204602B0BDE861
:107E78001040184702B010BD034B0448196800228F
:107E8800490800F056BA00BFF04F0020F84F002014
:107E980010B5C0B2FFF7C8FF0446007801F0E6FD50
:107EA80063785A1E53425341834208D1044BD3E9A5
:107EB8000023134303D1BDE81040FFF7DDBF10BD19
:107EC8001850002037B54308354AD35CC2074CBF69
:107ED8001B0903F00F0304460D46042B35D8DFE8D1
:107EE80003F003252C383C0079B30121FFF78AFF02
:107EF80000230DF107008DF8073000F00BFB01207F
:107F0800A4F12003C4F12001264A20FA01F100FA65
:107F180003F30B43A040D2E9004120430B43C2E9DD
:107F280000039DF8070000F019FB0EE0002918BFB8
:107F380002212046FFF766FF07E041B10321FFF762
:107F480061FF01212046FFF787FF03B030BD012103
:107F5800EFE70029F9D10421EBE709B10321E8E7AC
:107F6800FFF750FF29462046FFF776FF0DF107007F
:107F78008DF8075000F0CEFA0120A4F12003C4F1D7
:107F88002001084A20FA01F100FA03F30B43A0404C
:107F9800D2E9004124EA000021EA0303BFE700BF59
:107FA80020500020185000202DE9F041124E134FA8
:107FB80000243378A34208DC114BD3E90023134390
:107FC80018D0BDE8F041FFF757BF3D6805EBC4087E
:107FD80015F8340001F04AFD98F801305A1E534252
:107FE8005341181A4142414115F83400FFF76AFF1E
:107FF8000134DEE7BDE8F081EC4F0020405000205E
:1080080018500020092AF7B505460C4616463CD9F3
:1080180001F03AFCD8B11E4B1E481D601E4B1F4F85
:108028001C701F4B002120221E6004F080FB1D4B9A
:1080380000200021C3E90001013CE4B20326FF2C23
:108048000BD1194A1948002100F068F903E001F042
:10805800E3FB0028DFD003B0F0BD9DF8063015F82B
:1080680034008DF8046005EBC40223F007038DF893
:10807800063001A993788DF805303A4601F00EFCD8
:10808800013CE4B20028DAD0E5E70720E3E700BFC7
:108098004050002020500020EC4F0020997E020024
:1080A800F04F002018500020B17F020074D1020068
:1080B80070B5084D084E00242B789C4201D300204F
:1080C80070BD3368012113F8340001F063FC0134FA
:1080D800F2E700BFEC4F00204050002073B5114D6F
:1080E800114E00242B789C4214D300230DF1070075
:1080F8008DF8073000F00EFA0C4B00210020C3E980
:1081080000019DF8070000F029FA094800F029F954
:1081180002B070BD336813F8340001F085FC0134F7
:10812800E0E700BFEC4F002040500020185000202E
:10813800F84F00201FB50021039001AA44F2010066
:10814800CDE9011100F004F805B05DF804FB00006A
:1081580010B572B6FFF720FDFFF76AFB0028FBD1C8
:10816800104B114C1149E41AE408240444F00100AE
:10817800FFF7BAFC0E4B1B68DB0700D500BE0D49A4
:1081880044F00200FFF7B0FCBFF34F8F0A490B4BD6
:10819800CA6802F4E0621343CB60BFF34F8F00BF9D
:1081A800FDE700BF0CCF020034CF020078D10200F7
:1081B800F0ED00E084D1020000ED00E00400FA05D3
:1081C800D0E90223D1E90201994208BF90422CBFAD
:1081D800012000207047000008B50B4800F0F5FAB0
:1081E8000A4B0B49D3E900231218D1E9000143F1E6
:1081F80000038B4208BF824203D212F1807243F11E
:1082080000031046194608BDCC4300204850002002
:10821800C050002037B505460C460A4801A900F0B1
:1082280006FB60B10570446001A9064800F029FB0F
:1082380018B1054800F0CEFA002003B030BD042084
:10824800FBE700BFAC500020CC43002038B5184BEA
:108258001B78044613B90025284638BD0028FAD0F3
:10826800037F03F0FF05002BF5D0FFF7B5FFD4E936
:108278000223994208BF904214D3236903B9237794
:10828800D4E90530984721690029E4D0237F03F019
:10829800FF05002BDFD0D4E90223521843F1000375
:1082A800C4E902230348214600F08DFFD4E700BF4C
:1082B80050500020A0D1020013B5114B1149186885
:1082C800019008231048582200F09EFA044698B9F5
:1082D8000E4A0F4801A900F065F9044660B90C4838
:1082E800012100F055FA01230A4A0948194600F00D
:1082F800B7F9094B01221A70204602B010BD00BF21
:108308009CD1020054500020AC500020858302000C
:10831800CC430020FFFF7F00505000203AB1036893
:108328005A614A1E51425141196100207047072085
:10833800704738B5037F04460D4683B98261FFF75D
:108348004BFF2369401941F10001C4E9020103B15F
:10835800256121460020BDE83840FFF75BBF0020BB
:1083680038BD0023014603770120FFF753BF000003
:10837800014800F02ABA00BFCC4300202DE9F04F95
:1083880085B0804600F00CFA40B15A4AD2E9003173
:1083980013F1807341F10001C2E900310021404628
:1083A80000F00DFA38B1544E336823B13068FFF746
:1083B8004DFF002333600121404600F000FA20B150
:1083C800FFF70AFF4D4BC3E900014D484A4F4D4E98
:1083D800DFF8389103A900F064FA002845D1DFF8E6
:1083E8002491454EDFF828A1484600F002FF336883
:1083F800002875D07BB13368D0E90201D3E90223A4
:10840800994208BF90422DD233681B7F1BB1316857
:10841800484600F0D8FE484600F0E5FED0E902B331
:1084280007460193FFF7D8FE019BBBEB000463EB03
:108438000105012C75F1000345DBB4F5350F40D378
:10844800FFF796FF304A02444FF496030021504646
:1084580000F026F900283ED1336813B9404600F0F1
:10846800F7F8376005B0BDE8F08F0378012B1DD011
:10847800022B09D14FF0000A304600F0B4FE002864
:1084880034D080F81CA0F7E73BB941680B7F23B9CB
:1084980001230B77304600F096FE03A9184800F038
:1084A8002BFA03A9164800F0FCF996E741683B68E7
:1084B800994202D100233B60EFE7304600F09CFE72
:1084C800EBE7BA68C0E70021504600F06EF938467D
:1084D800FFF7BCFE01E00D28F9D00023336083E7E5
:1084E800002BBFD1404600F0B7F8BBE7012389F85D
:1084F8000030D2E748500020C8500020C05000206B
:10850800AC500020A0D10200FFFFB4005050002062
:10851800CC43002070B5EFF3108672B60C4A94680D
:1085280001239CB993600B4B0B4DD3F88010294065
:108538001160C3F88050D3F8841051604FF0FF32B7
:10854800C3F88420047006B962B670BD0370FAE7F8
:10855800CC50002000E100E0FC06FFBD084B9A6803
:1085680010B55AB150B9EFF3108172B6054A1C68BC
:1085780014605C685460986001B962B610BD00BFB1
:10858800CC50002000E100E0435882B03BB100230A
:10859800435043580193019B012002B0704718468D
:1085A800FBE70000F8B5224B4679224C43F8262019
:1085B800214A224B9B1A04EBC602DB0812791B04E2
:1085C800F70032B143F002001D49FFF78DFA082089
:1085D800F8BD02680D88C2F8085590F90450027970
:1085E8008978002DADBF05F1604CDFF85CC002F062
:1085F8000F0E0CF5614C4FEA4111C9B2B4BF0CF82B
:108608000E108CF800136D090121DFF840C002F04C
:108618001F0201FA02F24CF82520E21944F836004C
:10862800117143F003000749FFF75EFA0020CFE716
:10863800E0500020D85000200CCF020044CF0200A8
:10864800ACD10200CED1020014ED00E000E100E060
:10865800036801221A607047036801225A60704754
:1086680073B501F15005AD000068ADB24FF4803428
:108678008C400026C0F80843C0F84843465101F52D
:10868800A8714559019522F07F42019D40F82120AB
:10869800C0F844430BB1C0F8044302B070BD0000F9
:1086A8002DE9F74F0D4622F07F4402684FF48037DA
:1086B80005F150068F408046B60002EB8500C2F8EF
:1086C8004873B6B2C2F80873D2F8041599464FF049
:1086D800000BD0F84035C0F8401542F806B05B1AD8
:1086E8009259009223F07F43012B009A4FEA850AA2
:1086F8000CD1264B4FF4806043F001039847D8F81B
:10870800003043F806B09B590193019BD8F800103C
:10871800D1F80465C1F84473A31B23F07F43012BF0
:108728001CD11A4B05F5A875013443F0010341F833
:1087380025404FF480609847D8F80030D3F80435C6
:108748009E4209D1D8F800300020C3F84473C3F81A
:10875800047303B0BDE8F08F0D20FAE78A44C9F12D
:10876800FF13CAF84045D1F80405221A013A22F04D
:108778007F4203F57F439342EED3002AE2D10134CE
:10878800CAF84045D1F804359842DAE7E0D102004A
:1087980003680222C3F8442309B1C3F804237047CD
:1087A80000684FF48271FFF7EFBE4FF4803303FA8D
:1087B80001F10368C3F84813C3F808137047503130
:1087C8008900006889B2FFF7DFBE0368D3F80405A3
:1087D8007047000090F9043001215A0903F01F0383
:1087E80001FA03F34032024941F82230704700BFD2
:1087F80000E100E0024B034A1B681068184700BFFD
:10880800E0500020D850002010B561B1B2FBF3F45D
:1088180003FB1424A4B244B9C0E900148460828123
:10882800C381204610BD0E20FCE70920FAE737B5C2
:1088380050E8013F9DB2C48925448489A54228BFD8
:108848002D1B0489A54202BFBFF32F8F002207E02A
:10885800C5EA030540E80154002CE9D14FF00102B4
:108868008DF803200193019B9DF803200B6002F013
:10887800FF0322B10B880068184403B030BD1846C6
:10888800FBE70A884B889A4209D150E8012FC2EACF
:10889800024240E80123002BF7D101207047002055
:1088A800704737B550E8023F1FFAA3F5C488A542C0
:1088B80002BFBFF32F8F00220DE0C48925448489AD
:1088C800A54228BF2D1BC3EA054540E80254002CE9
:1088D800E8D14FF001028DF803200193019B9DF828
:1088E80003200B6002F0FF0322B14B880068184494
:1088F80003B030BD1846FBE70A884B889A4209D175
:1089080050E8022FC2EA224240E80223002BF7D1A6
:10891800012070470020704701F01F024B09012118
:10892800914000EB830000F01EB801F01F03012204
:108938009A404B0900EB8300D14300F02CB84B0957
:1089480001F01F0150F82300C84000F001007047F3
:1089580010B5034653E8000F0A4643E8002494F094
:10896800000FF7D110BD10B5034653E8002F42EAB7
:10897800010043E8000494F0000FF6D110BD10B5D3
:10898800034653E8000F00EA010243E8002494F08C
:10899800000FF6D110BD10B5034653E8002F02EAC8
:1089A800010043E8000494F0000FF6D110BD10B5A3
:1089B800034653E8002F02EB010043E8000494F05B
:1089C800000FF6D110BD10B5034653E8002FA2EBF7
:1089D800010043E8000494F0000FF6D110BD012116
:1089E800FFF7C1BF0021FFF7CABF10B590B1D0E9AA
:1089F800012301689B1ADBB20A60013BDBB2FF2B43
:108A0800026802D10020107110BD11684C1C14605E
:108A18000B70F2E70E20F7E737B5054600240DF195
:108A280007008DF80740FFF775FD2A686B68116825
:108A380099420ED9481E106011F8014CEB68298A3A
:108A480001FB0434AB6811791B1ADBB2994238BFB9
:108A580013719DF80700FFF781FD204603B030BD74
:108A680037B5054600230DF107000C468DF8073091
:108A7800FFF750FD2A681368591C1160E968641AE9
:108A8800298AB4FBF1F41C709DF80700FFF766FD16
:108A980003B030BD826810B504462AB14369016845
:108AA800006998470023A36010BD0EB403B503996D
:108AB80021B104AB01AA019300F06EF802B05DF891
:108AC80004EB03B07047826830B40468551C8560B5
:108AD800A154D0E901329A4202D330BCFFF7DABF81
:108AE80030BC70472DE9F84F9846DDE90A43154632
:108AF80082460F460A464FF00109AA420FD2C145E5
:108B080038BFC14613F0010B01D16CB9002401260E
:108B1800B8F1010F1BD908F1FF386E43F8E709F1E6
:108B28000109B2FBF5F2E8E79B070ED5B8F1000F93
:108B38000CBF30262026A145E9D2013C31465046DB
:108B4800FFF7C1FF002CF6D1E0E72026F3E7B7FBDB
:108B5800F6F39D42E1D9DFF83C80B7FBF6F35046C7
:108B680018F8031006FB1377FFF7ADFF3346AB4247
:108B7800B6FBF5F6F1D2BBF1000F02D00CB1A1455E
:108B880001D3BDE8F88F20215046013CFFF79BFF39
:108B9800F4E700BFE6D102002DE9F74F0546174676
:108BA8008846002900F0428118F8011B49B92B7B3F
:108BB800002B00F03B81284603B0BDE8F04FFFF7DB
:108BC80069BF252940F0B780002698F800302D2B82
:108BD800424608F1010823D0302B24D02B2B25D076
:108BE80000242A2B02F1010123D13B681A1D1B68BE
:108BF8003A601C440A4613782E2B26D101324FF0D6
:108C0800000A104610F8011BA1F1300CBCF1090F45
:108C18001DD80A2303FB0A13A3F1300A0246F0E722
:108C280046F00106D1E746F00206CEE746F0040614
:108C3800CBE711F8013CA3F130000928DBD80A2260
:108C480002FB0434303C0A46CBE74FF0000A12F826
:108C5800011B01F0FB0068289046F8D0782909D854
:108C68006F290CD8632962D022D8252963D05829C6
:108C780000F0888098F80030002B95D197E770397C
:108C88000829F7D801A353F821F000BF0F8E02007E
:108C98007D8C02007D8C02009D8D02007D8C02007F
:108CA8007B8D02007D8C02007D8C02008D8D020080
:108CB800642901D06929DDD13A68D2F80090111DE4
:108CC80089EAE9723960A2EBE9724FF0010B092ACF
:108CD80035DCD34538BFD3462CB1B9F1000F01DBE1
:108CE800720700D5013CB30702D5BAF1000F03D0D3
:108CF800F00701D44CBB0024B9F1000F2DDAC9F1FB
:108D080000092D212846FFF7DEFE06F00302022A9D
:108D180004D1BAF1000F01D11CBB0024CDE90046F3
:108D280053460A2249462846FFF7DCFEA2E73B687D
:108D38001A1D19783A602846FFF7C5FE9AE70A23F4
:108D48000BF1010BB2FBF3F2C1E7A345D4D220210A
:108D58002846013CFFF7B7FECCE77107D5D52B2194
:108D6800D0E7A345DAD230212846013CFFF7ABFE15
:108D7800D2E73968CDE900460A1D3A6053460A220F
:108D88000968D0E739680A1D3A60CDE900465346BC
:108D98001022F5E73B681A1D3A6016F00106D3F871
:108DA800009028D1B9F1000F03D0484603F03BFDED
:108DB8000646B44200D904BB09F1FF3919F8011F6E
:108DC80000293FF457AF2846FFF77DFEF6E728460F
:108DD8000136FFF778FE19F806100029F7D1A642E8
:108DE800BFF448AF002C3FF445AF20212846013C92
:108DF800FFF769FEF3E70026EDE720212846013C4E
:108E0800FFF761FED5E73B681A1D3A603021284616
:108E18001C68FFF758FE78212846FFF754FE002209
:108E28000823CDE90032214610227CE703B0BDE8D3
:108E3800F08F00BF2DE9F84FB0F806A04579D2F8B9
:108E480000B09DF828900AFB05F5043D88460BEB19
:108E58000301A94203F1040488BFA5EB030BB4FB8B
:108E6800FAF607460AFB1644C2F800B04EB9AAEB58
:108E780004055D4528BF5D46BBF1000F04D1BDE880
:108E8800F88F3F68013EF1E7043408EB06003C44E4
:108E98002A46B9F1000F0DD02146ABEB050B03F0C4
:108EA8001DFCDA452E443F6855464FF0000428BFA4
:108EB8005D46E1E701462046EFE7FFF796BDF8B5C6
:108EC80046790146721E0546002393422D6803D356
:108ED8000024A64202D8F8BD0133F6E70F682846F9
:108EE800FFF7BEFD01343946F3E72DE9F843068A5A
:108EF800CD1C0746FFF790FD043E35440446B5FBFC
:108F0800F6F5F0B14FF48073EDB28380C680013D71
:108F1800076081464FF00008A84512D23846FFF78F
:108F28007BFD064648B163790133637108F1010896
:108F3800C9F8000007608146EEE72046FFF7BFFF4B
:108F480034462046BDE8F88301210430FFF72FBDE1
:108F580010B5012104460430FFF735FD10F0FF0F6E
:108F680004D12046BDE81040FFF7A9BF10BD1FB5CA
:108F780003920022009203AAFFF75CFF05B05DF898
:108F880004FB1FB503920122009203AAFFF752FFC8
:108F980005B05DF804FB41DF70470000064B10B5D3
:108FA80000241C70054B1C60BFF35F8F0449054803
:108FB80000F0F3F8204610BDEC500020F0500020DF
:108FC80000D20200E450002007B500230DF107008D
:108FD8008DF80730FFF79EFAF1EE103A23F09F0361
:108FE800E1EE103ABFF35F8F094B4022C3F88421AA
:108FF8009DF80700FFF7B2FA03F058F920B1FFF720
:10900800CAFF03B05DF804FB20BF40BF20BFF8E7EC
:1090180000E100E0026813685268934291BFD01AD9
:1090280080680130801888BFC01A7047036881685B
:109038001A685B688B4234BF01330023D31A584245
:1090480058417047F7B5002304460DF107000D4657
:109058008DF80730FFF75EFA2046FFF7E7FF10B1FB
:10906800237C002B3CD12268A66853685168B14222
:1090780034BF01310021516030B11168A0688142CC
:1090880034BF013100211160E2686068511E072970
:1090980020D8DFE801F004101F141F1F1F182A78BA
:1090A800C2542046FFF7B6FF23689A68824200D26E
:1090B8009860002415E02A8820F81320F1E72A6830
:1090C80040F82320EDE7D5E9006700EBC300C0E9CD
:1090D8000067E6E7294602FB030003F0FFFAE0E732
:1090E80004249DF80700FFF739FA204603B0F0BDC5
:1090F800036818685B68C31A58425841704773B5CB
:10910800002305460DF107000C4616468DF807307A
:10911800FFF700FA2846FFF7EBFF002832D129684D
:109128000B682EB90A68A868824238BF561C0E60C0
:10913800EA686968501E07281ED8DFE800F0040EA8
:109148001D121D1D1D16CB5C237000249DF8070001
:10915800FFF704FA204602B070BD31F813302380BF
:10916800F3E751F823302360EFE701EBC301D1E9BE
:109178000023C4E90023E8E703FB0211204603F0BB
:10918800ADFAE2E70524E1E7836800225A60C3E903
:1091980004229A60DA601A6070470B684A68436074
:1091A800934208BF0023016008BF436070474368CB
:1091B80043B10268916852680B449342436004BF0C
:1091C80000234360704770B5446806460D46206822
:1091D80018B1B3682946984718B923682B602560E9
:1091E80070BD2468F3E74368186808B102681A601C
:1091F80070474368186870474368186800B9704733
:10920800884203D102681A6001207047034600684B
:10921800F4E7000010B50D49A1F59472914201D808
:1092280000200FE08C1AE30F03EBE4035B1002EB62
:10923800C30452F83330834205D802D204F108023D
:10924800ECE7606810BD2146E8E700BF0CD70200D4
:1092580008B5FFF7DFFF024B002808BF184608BD16
:10926800CFD50200054B1B68082B01BF044B1868BB
:10927800B0FA80F0400918BF002070473001001094
:109288003401001008B54FF080430022C3F80C21C8
:10929800C3F81021C3F838254FF0805203F5404336
:1092A800D2F80414C3F82015D2F80814C3F824150A
:1092B800D2F80C14C3F82815D2F81014C3F82C15DA
:1092C800D2F81414C3F83015D2F81814C3F83415AA
:1092D800D2F81C14C3F84015D2F82014C3F844156A
:1092E800D2F82414C3F84815D2F82814C3F84C153A
:1092F800D2F82C14C3F85015D2F83014C3F854150A
:10930800D2F83414C3F86015D2F83814C3F86415C9
:10931800D2F83C14C3F86815D2F84014C3F86C1599
:10932800D2F84424C3F87025FFF79CFF10B1384BDE
:10933800384A1A60FFF796FF18B1374BFB22C3F87B
:109348001825FFF78FFF48B13449354B0A681B6869
:1093580022F00F0203F00F0313430B60FFF782FFA5
:1093680018B1304B4FF400721A604FF08043D3F8B5
:109378000024D20744BF6FF00102C3F800242A4A30
:10938800D2F8883043F47003C2F88830BFF34F8FA7
:10939800BFF36F8F4FF01023D3F80022002A03DBAE
:1093A800D3F80432002B2FDA204B0122C3F804250E
:1093B800D3F80024002AFBD04FF010221221C2F863
:1093C8000012D3F80024002AFBD04FF010231222F9
:1093D800C3F80422154B1A46D3F800140029FBD011
:1093E8000021C3F80415D2F80034002BFBD0BFF3DA
:1093F8004F8F0D490E4BCA6802F4E0621343CB60ED
:10940800BFF34F8F00BFFDE70A4B0B4A1A6008BD38
:109418008C5600404881030000F00040E40E0040F4
:10942800580200104096024000ED00E000E00140C4
:109438000400FA05D44300200090D003074B1B5CBE
:109448001F2B86BF064903F01F034FF0A0410122DE
:1094580002FA03F3C1F80C35704700BF0CD70200BD
:1094680000030050074B1B5C1F2B86BF064903F007
:109478001F034FF0A041012202FA03F3C1F8083597
:10948800704700BF0CD702000003005008B5002049
:10949800FFF7E8FF0120FFF7E5FF0220FFF7E2FFF3
:1094A800BDE808400320FFF7DDBFC20710B504463A
:1094B8000CD54FF0A0430322C3F83427C3F838274C
:1094C800C3F83C27C3F84027FFF7E0FFA3070AD5F6
:1094D8004FF0A0430C22C3F82C27C3F83027C3F859
:1094E8006027C3F8642710BD38B5074C051E04F182
:1094F800080318BF1C4623682BB11A6822605B68F2
:1095080028469847F7E738BDFC50002020B9054B9E
:1095180001225A70FFF7E8BF012802D1014A907072
:10952800F8E77047F450002020B9034B01225A7025
:10953800FFF7DABF704700BFF450002038B50B4C76
:10954800237883B90A486360A3602361E36000F06D
:10955800C9F8054602F0AAFE08B900F0CFF80123C1
:109568002370284638BD8525FBE700BFF45000204E
:109578001595020037B50B4C00230DF107008DF847
:109588000730FEF7C7FFE368013BE360E56815B9FC
:1095980000F0C6F8A5709DF80700FEF7DFFF03B0DE
:1095A80030BD00BFF4500020012813B508D00328AF
:1095B8001CD018B9104B0122C3F8802002B010BD8E
:1095C8000E4C00230DF107008DF80730FEF7A2FFBF
:1095D80023780BB9FFF7B2FFE3689DF80700013362
:1095E800E3600123A370FEF7B9FFE7E700F086F810
:1095F800FFF7C0FFE2E700BF00E100E0F450002001
:109608001FB503788DF800304368019383688DF89F
:109618000830C368054A0393054B684653F8213060
:1096280052F82110984705B05DF804FB0851002056
:10963800105100201FB503788DF80030436801935E
:1096480083688DF80830C368054A0393054B68465C
:1096580053F8213052F82110984705B05DF804FB03
:109668000851002010510020F0B5194B90F800C0A7
:10967800DFF86CE043F82C20164B16460A6943F8CD
:109688002C204B7F0EF80C300C4607460FCC89B0C7
:109698006D460FC594E80F0085E80F001EF80C30E2
:1096A800CDF810C04BB1002E0B4A694608BF3246B0
:1096B800381D00F003FE09B0F0BD002E074A6946C8
:1096C80008BF324607F10C0000F0D4FBF3E700BFF7
:1096D8001051002008510020099602003D96020012
:1096E80018510020044A137923B901211060918090
:1096F80018467047852070471C510020074B1A6890
:10970800D2075FBFC02283F8002301221A604FF0FE
:1097180080430122C3F81825704700BF00E100E02C
:10972800044B01221A604FF08042D2F81834DB0350
:10973800FBD470470C000040154B07B51A687AB186
:1097480000221A601B680093009B4FF0804301229F
:10975800C3F808230F4B587910B95A711B689847FA
:109768000D4B1A6882B100221A601B680193019B95
:109778004FF080430222C3F80823064B1B680120E0
:1097880003B05DF804EB184703B05DF804FB00BFB5
:10979800000100401C5100200401004000F18040FD
:1097A80000F5C040002382B0036003680193019B69
:1097B80002B0704703681F2B83BF03F01F030360C9
:1097C80001484FF0A04070470003005007B50190D2
:1097D80001A8FFF7EFFF019B00EB8300D0F80037EB
:1097E80023F44033C0F80037D0F8003743EA01418A
:1097F800C0F8001703B05DF804FB0000054B4FF0FC
:10980800FF32072843F8202084BFC01880F858206A
:10981800704700BF2451002010B5174C94F86A30E7
:1098280043BB04F130033021FF22013911F0FF015D
:1098380003F8012BF9D1C8B2FFF7E0FF01310C2979
:10984800F9D1062200210D4802F071FF0C4BC0220D
:1098580083F8062340221A604FF4BE70FFF79EFF7C
:10986800084B4FF00042C3F80423012384F86A3000
:10987800002010BD0820FCE724510020885100205A
:1098880000E100E000600040034B93F86A000038F4
:1098980018BF0120704700BF24510020F7B53B4E88
:1098A8003318054693F93030002B6CDA8B78C3F304
:1098B8004003002B0BBF082400240C2008208442FE
:1098C80002D1042003B0F0BD56F82470013743D10B
:1098D800701946F8242080F8304013B9331983F8FA
:1098E80058508B785A0717D4D80737D501A801954F
:1098F800FFF760FF019B00EB8300D0F8003723F0EF
:109908000203C0F800372248EA0805F007070123D8
:10991800BB40875C3B4383548B780A7813F002037F
:1099280028D0A40004F1804404F5C0442D02D4F8E2
:10993800103523F44F3323F44073C4F81035120460
:10994800D4F8103505F47C5502F4403215431D4314
:10995800C4F810550020B5E70134B0E701A84A78EB
:109968000195FFF727FF019B03F5E073920040F88C
:109978002320C8E7083C344494F8605045EA821232
:1099880084F86020E6E708209CE700BF2451002007
:109998008851002073B5224C2618054696F93020C8
:1099A800072A1ADD224492F858309B09032B0FD15D
:1099B800019001A8FFF7FEFE019BD0F81015D940D1
:1099C80001F0010102312846FFF700FF02B070BD27
:1099D800012B0CBF02210321F5E7D3B2072BF5D8E1
:1099E800930003F1804303F5C043D3F8100540F01A
:1099F8000100C3F8100502F14000800080B2FFF7B3
:109A0800CDFE0029E2D096F9303054F82330002BEF
:109A1800DCD0012303FA02F2024BC3F80423D5E792
:109A280024510020006000400E4B034493F930207D
:109A3800072A02DD0021FFF7C9BED3B2072B10D8D1
:109A4800930003F1804303F5C043D3F8101521F0C8
:109A58000101C3F81015012303FA02F2024BC3F8FF
:109A680008237047245100200060004007B501908A
:109A780001A8FFF79FFE019BD0F81005D84000F021
:109A8800010003B05DF804FB2DE9F04F002489B014
:109A9800CDE90244624D4FF48072012102F1804306
:109AA80003F5C04390B21B68012B06D1D5F80433E7
:109AB8000B4202D0FFF772FE0C430432B2F5907FDE
:109AC8004FEA4101EAD1574B1B68012B0ED14FF4E5
:109AD800BE70FFF763FE4FF0A04344F00044D3F894
:109AE80010350293504BD3F81035039314F0FF0F41
:109AF8001AD04E4F00250126344210D0AB0003F196
:109B0800804303F5C043D3F81005D3F8101557F870
:109B1800253023B1C1F30141C0F305209847013531
:109B2800082D4FEA4606E7D1002C75DA04AF00236A
:109B380004937B604FF0FF33CDE90633DFF8EC90F8
:109B4800DFF8EC800026354618F9012B531C4AD063
:109B5800C2F3C2000123D4B202F03F0B02F00702A5
:109B680003FA02F208AB191811F8083C13423AD06C
:109B780009EB0B03A40993F9303059F823A0BAF183
:109B8800000F08D1032C2ED117F800C04CEA020CA4
:109B980007F800C001E0032CF6D001A8CDF804B006
:109BA800FFF708FE019B11F8181C03F5E07C114231
:109BB80050F82C00C0F3014005D0022813D1032C23
:109BC8000BD1214604E003280DD1032C05D1022135
:109BD8005846FFF7FBFD0135EDB2BAF1000F02D090
:109BE80021465846D0470136042EADD1A5B14FF0D5
:109BF800A0430299D3F8102503F540739142D3F896
:109C0800103502D10399994206D002920393049A1F
:109C1800059B0692079393E709B0BDE8F08F00BF54
:109C2800006000407C610040000300502451002087
:109C380084510020014B1B68184700BF9051002039
:109C48000E4B984237B50C4602D0002003B030BD09
:109C580000230DF107008DF80730FEF75BFC084B79
:109C68001D7915B901221C601A719DF80700FEF7CD
:109C780075FC002DE9D01120E8E700BF0020004066
:109C880090510020034B984201BF034B00221A60F9
:109C98001A71704700200040905100200023435063
:109CA80082B043580193019B02B070470A4610B531
:109CB8004FF48E71FFF7F2FF136A9168C95C136A5B
:109CC80001331362C0F81C1510BD8B690A4610B524
:109CD8004FF4847123B9FFF7E1FFD0F8183510BDB0
:109CE800FFF7DCFF536AD168D0F81805C854536AE7
:109CF80001335362F3E700001FB501238DF80030EC
:109D0800044BCDE90110D3E900126846904705B02D
:109D18005DF804FB9851002030B54C48D0F8043366
:109D280013F4007F85B005464DD0D0F82431002BC0
:109D380049D04FF49271FFF7B1FF4FF40173C0F8A7
:109D48000833434B93F829200AB9012242603F495E
:109D580002228DF80020D1F88024C1F880240392D3
:109D68009A690292DA6801920022C3E906226846DB
:109D7800D3E9001290473548D0F81C315BB134491B
:109D88004A690B6A9A420A464AD991F82830002B48
:109D980046D1FFF78BFF2D48D0F844318BB14FF4F3
:109DA800A271FFF77BFF2A4B93F829200AB1012201
:109DB80002609A692AB10022586AD9689A61FFF745
:109DC8009BFF05B030BDD5F804335B07D3D5D5F874
:109DD8000831002BCFD01E4C1C482146FFF775FFD9
:109DE800636AA2699A422346C5D1E269E1684AB129
:109DF8002369E3600023606AA261E3616362FFF79D
:109E08007BFFB8E794F829200AB901226A600F4A53
:109E18004FF40170C2F808030022586A9A61EEE70D
:109E28000A484FF48E71FFF739FF5369002BB2D0FF
:109E380051690291002391688DF8003001915361B6
:109E48006846D2E900139847A5E700BF0020004004
:109E5800985100201F2886BF00F01F00044B4FF0C8
:109E6800A04300F5E070022243F82020704700BFAD
:109E7800000300502DE9F843634B057991462C22E5
:109E880002FB0532064692F82A200C469846002A1C
:109E980040F0B6805D490068FFF7D2FE074600280B
:109EA80040F0B08021684A1C10D01F2987BF584A4B
:109EB80001F01F030B464FF0A0420120984003F524
:109EC800E073C2F80805032042F823006068431CC9
:109ED8000DD01F288BBF00F01F0303464C4A4FF0DC
:109EE800A04203F5E0734FF0000C42F823C033683A
:109EF800A269C3F8242594F814C0627DBCF1010F4F
:109F08004CEA0202C3F86C25C3F81405C3F80C1513
:109F18002BD1A168481C0DD01F298BBF01F01F024F
:109F28000A463B484FF0A04002F5E0724FF0000CA3
:109F380040F822C0E068421C13D01F2887BF344A6B
:109F480000F01F0C84464FF0A0424FF0010E0EFAAD
:109F58000CFE0CF5E07CC2F808E54FF0030E42F861
:109F68002CE0C3F80805C3F810152C236B4308EB45
:109F78000302C2F80490226948F80320B9F1000FDF
:109F88002BD03068247F4FF48E71FFF787FE30683E
:109F98004FF4A271FFF782FE32681E4BC2F80433F9
:109FA800110B42F30732002AA8BF02F160404FEAC2
:109FB8004413BABF184801F00F0400F56140DBB242
:109FC800B4BF035580F8003301F01F01012303FAE1
:109FD80001F15209114B43F8221033680422C3F8E7
:109FE80000252C2303FB05830022C3E9062283F8FE
:109FF80029205A61012283F82A203846BDE8F883CF
:10A008000827FAE71127F8E798510020219D020058
:10A01800000300508000020014ED00E000E100E0C1
:10A028002DE9F04103680479244D0022C3F8002586
:10A038002C2202FB0452014652686AB1204AC3F836
:10A04800082343F30732C3F3043652090120B04012
:10A0580020321C4E46F82200D3F80C05D3F814859C
:10A06800D3F80865D3F810754FF0FF329042C3F863
:10A078001425C3F80C25C3F80825C3F8102501D00A
:10A08800FFF7E8FEB8F1FF3F02D04046FFF7E2FED7
:10A098007A1C02D03846FFF7DDFE731C02D030462A
:10A0A800FFF7D8FE0868FFF7EDFD2C2303FB0454E7
:10A0B800002384F82A306360BDE8F08198510020BD
:10A0C8008402020000E100E02DE9F047204F90F8FB
:10A0D80004904FF02C0808FB097405466669002EA9
:10A0E80034D162610068A16026624FF48E7184F8F1
:10A0F8002860FFF7D3FD2868012383602146FFF716
:10A10800D5FD6368A0468BB92868D4F814A0236AE3
:10A118009A4511D82A68D2F81C31002BFBD00123AC
:10A12800D3602C2303FB097300225A613046BDE833
:10A13800F08794F828303BB9D0F81C31002BF8D0C0
:10A148004146FFF7B3FDE2E70F26EAE71126EDE700
:10A15800985100200023435082B043580193019B3B
:10A1680002B070471FB501238DF80030044BCDE9CC
:10A178000110D3E900126846904705B05DF804FB6A
:10A18800C45100201F2886BF00F01F00044B4FF069
:10A19800A04300F5E070022243F82020704700BF7A
:10A1A800000300507FB5434AD2F82461002E60D0E6
:10A1B80010464FF49271FFF7CDFF02238DF800305F
:10A1C800D2F88034C2F880340393D2F83C35029335
:10A1D800394BDA6801920022C3E906226846D3E9BE
:10A1E800001290473348D0F8443173B14FF4A2714C
:10A1F800FFF7B0FF304B9A693AB10022C3E9062253
:10A20800D968D0F83C05FFF7ADFF2A48D0F82031CF
:10A21800ABB14FF49071FFF79DFF0123C360264B4C
:10A228005A6962B1D0F84C150291002299688DF8EC
:10A23800002001915A616846D3E9001290471D48F1
:10A24800D0F858319BB14FF4AC71FFF783FF1A4B2C
:10A258005A6962B1D0F84C150291002299688DF8BC
:10A26800002001915A616846D3E90012904704B072
:10A2780070BDD2F81031002BB4D04FF4887110465D
:10A28800FFF768FF0C4BD2F83C0599698842A9D1C1
:10A29800DC69D96864B1D2F8005225F02005C2F80B
:10A2A80000521A699C61DA60DE61FFF75BFF99E78B
:10A2B8009C61FAE700200040C45100202DE9F843D2
:10A2C8006A4B06799146242202FB0632044692F82C
:10A2D80020200D469846002A40F0C3806449006853
:10A2E800FFF7AEFC0746002840F0BD802868421CF6
:10A2F80010D01F2887BF5F4A00F01F0303464FF0A6
:10A30800A0420121994003F5E073C2F80815032122
:10A3180042F8231069684B1C0DD01F298BBF01F030
:10A328001F030B46534A4FF0A04203F5E0734FF06A
:10A33800000C42F823C02368AA69C3F8242595F8BD
:10A3480014C06A7DBCF1010F4CEA0202C3F86C2507
:10A35800C3F80C05C3F814152BD1A968481C0DD0F7
:10A368001F298BBF01F01F020A4642484FF0A04048
:10A3780002F5E0724FF0000C40F822C0E868421C79
:10A3880013D01F2887BF3B4A00F01F0C84464FF0AC
:10A39800A0424FF0010E0EFA0CFE0CF5E07CC2F85C
:10A3A80008E54FF0030E42F82CE0C3F80805C3F89F
:10A3B80010152423734308EB0302C2F804902A699A
:10A3C80048F80320B9F1000F3AD020682A7F4FF4EB
:10A3D8008871FFF7BFFE20684FF49071FFF7BAFE4F
:10A3E80020684FF49271FFF7B5FE20684FF4A27110
:10A3F800FFF7B0FE20684FF4AC71FFF7ABFE23689F
:10A408001D49C3F80413190B43F30733002BAEBFE0
:10A4180003F1604001F00F0518484FEA4212A8BF47
:10A4280000F56140D2B2B4BF425580F8002301F074
:10A438001F01012202FA01F15B09114A42F82310B7
:10A4480023680822C3F80025242303FB068300227F
:10A45800C3E906225A61012283F820203846BDE864
:10A46800F8830827FAE71127F8E700BFC45100204E
:10A47800ADA10200000300501003420014ED00E0FB
:10A4880000E100E02DE9F0412E4E0579242303FB7D
:10A49800056304465B6800686BB12B4BC0F8083352
:10A4A80040F30733C0F304315B0901228A402033AB
:10A4B800264941F82320D0F80032012223F0200356
:10A4C800C0F800324FF4AC714260FFF743FE2368D6
:10A4D800DA60D3F85821002AFBD00022C3F80025FF
:10A4E800D3F80C05D3F81485D3F80815D3F81075EC
:10A4F8004FF0FF329042C3F80C25C3F81425C3F877
:10A508000825C3F8102501D0FFF73CFEB8F1FF3F3E
:10A5180002D04046FFF736FE7A1C02D03846FFF7D5
:10A5280031FE4B1C02D00846FFF72CFE2068FFF7CF
:10A53800A9FB242303FB0565002385F820306B6005
:10A54800BDE8F081C45100201003420000E100E0A2
:10A5580001F06043B3F1005F2DE9F041064638D1C0
:10A568001E4B0779242505FB073598466C69002C96
:10A5780031D16A610068A9604FF49071FFF7EAFD74
:10A588004FF4AC713068FFF7E5FD33686A69A96874
:10A59800C3F84415C3F8482501229A606A68AAB925
:10A5A800D3F82021D3F858411AB9002CF8D00F2439
:10A5B80007E0002CFBD10122DA60D3F85821002AE9
:10A5C800FBD0242303FB078700237B612046BDE8DB
:10A5D800F0811024FAE71124F8E700BFC4510020E5
:10A5E800032811D8012A0AD101290FD100F10E023E
:10A5F800D2B20D4B00EB40001A54002070470129DD
:10A60800F7D0022904D049B1072070470022F8E7A3
:10A61800054B00EB400018444270EEE7024B00EB9C
:10A62800400018448270E8E7E851002008B501228C
:10A6380002210020FFF7D4FF08B1072810D1072214
:10A6480002210120FFF7CCFF08B1072808D100211B
:10A658000A220846FFF7C4FF10B1072808BF0020E8
:10A6680008BD00000388102B10B502D0112B1ED096
:10A6780010BD1A4C2168B1B901220846FFF7B0FF96
:10A6880008B1072824D1072202210120FFF7A8FFDB
:10A6980008B107281CD1042202210020FFF7A0FFDF
:10A6A80008B1072814D1236801332360E0E70B4A77
:10A6B8001368013B1360002BDAD1FFF7B7FF0028BE
:10A6C800D6D0074B1B68002BD2D0BDE810401847E6
:10A6D800034B1B68002BE6D09847E4E7F8510020AD
:10A6E800F451002075DF704776DF70478FDF7047C1
:10A6F800A3DF7047FDF71EBD4288034B01461820B3
:10A7080000FB023001F03CBCA453002008B50A4805
:10A718000A4B0B49C01AC008000440F00300FDF7BB
:10A72800E3F9084801F002FB08B1FDF703FDBDE8B5
:10A7380008400020FEF782BE34CF02000CCF020092
:10A7480032D70200BC5300200378062B03D140689F
:10A7580008B1FDF7EFBC70470B2807B518D11048B2
:10A76800019101F0EBFC30F00803019A03D043F2A9
:10A778000203984211D10B4B0B480C49C01AC00870
:10A78800000440F0030003B05DF804EBFDF7B0B936
:10A7980003B05DF804EBFDF7CDBC03B05DF804FB36
:10A7A800A45300200CCF020034CF020057D7020078
:10A7B80070B50D78012D06460C4602D0022D19D031
:10A7C80070BD1848184B4A8818491B1ADB081B0427
:10A7D80043F00300FDF78CF9FDF76AFC08B1FDF7BB
:10A7E800A9FC304601F082FC0028E9D0BDE87040A1
:10A7F800FDF7A0BC0B4B0C484A88C01AC0080004DF
:10A808000B790B4940F00300FDF77BF923792846C3
:10A818001BB1BDE87040FEF711BEBDE87040FEF701
:10A8280021BE00BF0CCF020034CF02006ED7020059
:10A83800A0D7020010B5154B154C1649E41AE408C8
:10A84800240444F0030486B02046FDF74DF9124A6B
:10A85800CDF814D010685168127A6B4603C31A7089
:10A868000E4A0F494FF400232046CDE90323FDF794
:10A878003BF903A90020FFF73BFF0A49024620469F
:10A88800FDF736F9002006B010BD00BF0CCF02005E
:10A8980034CF0200D0D70200FFD7020001003900F0
:10A8A800E1D70200F1D7020030B5184C85B04FF45B
:10A8B8007A7544F001044FF47A40A047013DFAD17B
:10A8C800134B144C1449E41AE408240444F0030418
:10A8D8002046FDF709F90123ADF8003003F59C0384
:10A8E800019320464FF400330C490293CDF80CD065
:10A8F800FDF7FAF801A92846FFF7FAFE08490246CB
:10A908002046FDF7F5F8284605B030BDB0D802005E
:10A918000CCF020034CF020008D80200E1D70200B1
:10A92800F1D702002DE9FF470388382B04465CD095
:10A9380014D81F2B00F08F8006D8102B32D0112B83
:10A948006CD004B0BDE8F087212BFAD1002303A90D
:10A958008088ADF80C30FFF7C9FE81E03B2B00F092
:10A968008580562B00F08280392BEAD1424EC78968
:10A9780035688DB94148DFF82091DFF820A100F053
:10A98800FFF904F11008AF421FDC3D4800F0F8F968
:10A99800E389042B00D100BF132F8CBF01230023B0
:10A9A8003360CEE7FFF746FF0120FEF747FD00F0D2
:10A9B800EFFA01284FF0000002D1FEF753FDC0E77F
:10A9C800FEF73CFDFFF7A2FEBBE7052D06DC18F8F5
:10A9D8000510504600F0D4F90135D4E7AB1F052B1C
:10A9E800FAD818F805104846F4E7264B26482749B0
:10A9F800C01A63890093C00804F11203228A244C08
:10AA0800000440F00300FDF786F82368002B98D176
:10AA1800FFF74AFF23680133236092E7194B1A486E
:10AA2800A2881C49C01AC0080004237A40F0030019
:10AA3800FDF767F800F0ACFA38B9FDF74FFB08B13D
:10AA4800FDF778FB0120FEF70DFDFFF75FFE002004
:10AA5800FEF7F4FC75E700F108018088FFF742FE75
:10AA680000283FF46EAFFDF765FB6AE7A088132165
:10AA7800FFF73AFEF4E700BF005200201CD802009E
:10AA88004BDC02000CCF020034CF02002FD80200AA
:10AA9800FC5100205BD8020027D8020021D8020010
:10AAA8001FB54FF480410020FCF768FE08B1FDF7A0
:10AAB80041FBFCF78DFDFDF7FFFB08B1FDF73AFB05
:10AAC8000120FEF7F2FC354840F233320121FDF750
:10AAD80099FA08B1FDF72EFBFEF760FA08B1FDF709
:10AAE80029FB01F0A5FB08B1FDF724FB002369460B
:10AAF8000120009301F024FC08B1FDF71BFB684618
:10AB080001F0D0FC08B1FDF715FB2548002100F045
:10AB1800A1FD08B1FDF70EFB08220021684601F0EF
:10AB280006FE204C204B00936846019400F0D8FBA9
:10AB380008B1FDF7FFFA1D4B1D48CDE90034694601
:10AB48001C4B029301F070FA08B1FDF7F3FA00F01C
:10AB58001DFA10220021684601F0E9FD0123164A7A
:10AB680016488DF8043069468DF80C3001F088F8E5
:10AB780008B1FDF7DFFA124B12481349C01AC00892
:10AB8800000440F00300FCF7AFFFFFF7BFFDFCF740
:10AB98004FFE0028FBD1FEF717FAF8E7D84300204C
:10ABA80090530020E043002001A70200B9A702004B
:10ABB800A4530020FDA6020051A70200BC530020A8
:10ABC8000CCF020034CF02008DD802000369C1689F
:10ABD8008B429DBF8268D21802F1FF3203F1FF3326
:10ABE80094BF501A581A70472DE9F843D0E90294D7
:10ABF8000546A9EB04084068904520440F461444D4
:10AC080004D901F06BFDEC60BDE8F8834246A4EB83
:10AC1800090401F063FD6868224607EB0801F0E7C4
:10AC28002DE9F843C5680646894617464FF00008DF
:10AC38003469B3687068A54228BFE418013C621BF8
:10AC48005C1BBC4228BF3C46944228BF1446494678
:10AC58002844224601F042FDB3682544AB4208BFB0
:10AC680000253F1BA044A144F560E1D14046BDE862
:10AC7800F883000010B5114C114AA2610223C4E9FF
:10AC88000433104BE361A2644FF400730E4A0F497A
:10AC98002362E26400231022E01DA3626362E36280
:10ACA800A3656365E365226501F074FD08492046E4
:10ACB80001F070FD2023A37110BD00BF04540020D3
:10ACC800CCD802008C5400207C540020D5D8020037
:10ACD800D9D80200F8B5184C182300FB033503FB3C
:10ACE80000402544C46A012C0F4616460FD0022C9A
:10ACF8001AD0F4B92846FFF769FF864205D83246CC
:10AD080039462846FFF770FF34462046F8BD2846E6
:10AD1800FFF75CFF8642344628BF04462246394680
:10AD28002846FFF761FFF0E72846BDE8F840FFF73F
:10AD380077BF0024E9E700BF0454002073B50E4B29
:10AD48001B7804460D4616460BB9FFF793FF002300
:10AD58000DF107008DF80730FDF7DCFB3246294678
:10AD68002046FFF7B7FF04469DF80700FDF7F6FBFE
:10AD7800204602B070BD00BF04540020FFF77ABF20
:10AD88000FB410B5A2B024AB802153F8042B019363
:10AD980002A801F095FC802804460ADD802202A959
:10ADA8000020FFF7CBFF204622B0BDE8104004B0DA
:10ADB80070470028F7DD0246F1E770B5E8B14AB1FF
:10ADC80016880024B44203D305196D789D4208D033
:10ADD800A14201D8002010E0055D01352C44A4B241
:10ADE800F0E7A142F6D9005D0138A31C80B29DB2FC
:10ADF80010FA83F38B42EDDC158070BD13B5134652
:10AE08000022ADF806200DF106020446FFF7D5FF33
:10AE180010B1BDF80630E01802B010BD0AB1FDF758
:10AE28007BBDFDF782BD000002487C22002101F0B5
:10AE38007EBC00BF8C56002073B50191019C06466C
:10AE48006CB100252C46294601A8FDF778FD18B1FC
:10AE580006EB440301349D800135142DF3D13046AF
:10AE6800346002B070BD00002DE9F0470388848883
:10AE7800103B8CB005460A2B1FD8DFE803F0063FCD
:10AE88001E1E1E1E1E1E1E604400314EB368DB438C
:10AE9800009371686846FDF77EFD009901A8FFF7E9
:10AEA800CBFF0DF108094FF00008019B984507D327
:10AEB800132C13D90420FDF73DF90CB0BDE8F08739
:10AEC80039F802AB00270137514606EB8700FDF73A
:10AED8002CFD1E2FF7D108F10108E6E71D48214691
:10AEE800FDF71AFD1C482146FDF716FDEB7B012BEB
:10AEF800E3D01A482146FDF70FFDDEE71548214645
:10AF0800FDF713FDD9E7027A15483F2A4FEA1215D3
:10AF1800214694BF00220122FFF780FF022D94BF33
:10AF2800002201220F482146FFF778FF012D0E4825
:10AF380094BF002201222146FFF770FFBDE7037A84
:10AF4800002BBAD1427A0648C2F3C0022146F3E781
:10AF58008C560020945600209056002098560020C9
:10AF6800A4560020A05600209C56002037B5002487
:10AF780001902546214601A8FDF7E1FC00B1013505
:10AF88000134142CF6D1284603B030BDFFF74CBF6E
:10AF980007B5064BDA680192996801A8FDF7FBFC32
:10AFA8000198FFF7E3FF03B05DF804FB8C5600201F
:10AFB80030B50B4B19680B4B0022914201D1002090
:10AFC80009E09D788478A54206D11D880488A542A9
:10AFD80002D1054B186830BD01320433EDE700BFDC
:10AFE8001057002014570020085700202DE9F84F6B
:10AFF80090F8C6A24FF0760B04460AFB0B00884671
:10B008009146FFF7D5FF074670B3D4F8CC52052D0B
:10B018002AD804EBC5165A46A6F8D2920BFB0A4169
:10B0280006F5357001F05AFBB8F1000F14BF002384
:10B03800022386F8D0320D4BC6F84C731A680135D6
:10B048009542C4F8CC521D460ED104F5347600273B
:10B05800F36F304698472B6801379F4206F1800608
:10B06800F6D30023C4F8CC32BDE8F88F105700207F
:10B0780030B5A1B004460D467C22002101A801F09C
:10B0880056FB03238DF80430044BADF806501B68BB
:10B0980002940BB101A8984721B030BD0857002091
:10B0A8002DE9F041074691F8C60276234FF00008D3
:10B0B800A0B081F8C88200FB03100C461546FFF7C4
:10B0C80077FF064660B17C22414601A801F02FFBBC
:10B0D80001238DF80430ADF80650029701A8B04757
:10B0E80029462046FFF7C4FF20B0BDE8F0810000E4
:10B0F80030B58BB0044620220D4602A8002101F08D
:10B1080016FB04220DEB0200002101F010FB94F85D
:10B11800C53294F8C62213B3013B7621DBB2514302
:10B12800122000FB031323445B8A01339BB2ADF862
:10B138000430762303FB024202A91389ADF80630D6
:10B1480003238DF80830019BCDE90543064B049392
:10B15800064B2A46186800F081FC0BB030BD7623F8
:10B1680003FB0243DB88E2E7A9B002002C5700206A
:10B17800F0B5044689B020220D466846002101F04A
:10B18800D6FA94F8C7321E4A01331268DBB29342EA
:10B1980084F8C7324FF000022BD294F8C632194F08
:10B1A80084F8C5220133DBB2762113FB01F057F88E
:10B1B800237084F8C6322618275001FB03433271E6
:10B1C8001B68CDF81230104B029302220F4B8DF8FA
:10B1D80000200122ADF81020186803942A46694619
:10B1E80000F03CFC18B12A462146FFF759FF09B088
:10B1F800F0BD84F8C82229462046FFF739FFF6E754
:10B208001057002014570020A9B002002C57002026
:10B218002DE9F047044688B00D4616460021202245
:10B22800684601F084FA94F8C62294F8C512762389
:10B2380012FB03F2A018122790F804C017FB012391
:10B2480001F1010E0A33E645234411D004F11C092B
:10B2580000F1220E0CF1FF389144CAB294450BD983
:10B2680088451B890ED102899A421BD1002312E01E
:10B278001B890289934215D101232B70002008B045
:10B28800BDE8F08707FB01FA01333EF80A20934234
:10B298001DD109EB0A0394F8C522013284F8C522AE
:10B2A8000131DAE701339BB2ADF810300A4B029353
:10B2B80000210A4B297004218DF80010ADF81220E6
:10B2C800186803943246694600F0C8FBD7E7013A8C
:10B2D8009BB292B2E8E700BFA9B002002C57002049
:10B2E80010B570B1026862B1436853B106490020D5
:10B2F8000860064901240C7005490A60054A136074
:10B3080010BD0E20FCE700BF105700200C5700208E
:10B31800085700202C57002010B5044680B10C4B6C
:10B328001B787BB1FFF744FE70B90A4A1368052BF6
:10B338000CD80949246841F823400133136010BD33
:10B348000E20FCE70820FAE70020F8E70420F6E7DB
:10B358000C57002010570020145700202DE9FF41FA
:10B368000C46054660B159B1904B1B7843B1038830
:10B37800322B64D007D8112B00F00A81302B20D053
:10B3880004B0BDE8F081332BFAD18288B1F8CA3213
:10B398009342F5D1C68891F8C6C291F8C572002EBD
:10B3A80000F0C080762101FB0C4C00239CF80410AF
:10B3B8008DF80F307B1C8B4200F0E48084F8C53296
:10B3C800A2E08388B1F8CA229A42D9D1C3886BBB5C
:10B3D80091F8C632762202FB03130269C3F80620ED
:10B3E80091F8C432827A1344062B0CDC81F8C432FB
:10B3F800A9882046FFF77CFE0028C1D0AA882146EC
:10B40800FFF74EFEBCE7062381F8C4326848694B53
:10B418006949C01AC008000440F002000190FCF716
:10B4280063FB66490198FCF75FFBE1E700212046D2
:10B43800FFF7DCFDA9882046FFF79AFEA0E782887F
:10B44800B1F8CA329A429BD1C388002B58D191F8DF
:10B45800C672762317FB03F701EB0708837A98F87F
:10B4680004603344062B26DC88F80430334603EBAB
:10B47800C30207EB420205F10C062244002198F8AA
:10B488000400834206F10A0602F1120227D31222AF
:10B49800013B02FB034394F8C62276213B4401FB9F
:10B4A8000242598A138999422AD2062828D0A988A3
:10B4B80084F8C5029DE7062388F804303C483D4BD4
:10B4C800CA5B3F49C01AC008000440F0020001905E
:10B4D800FCF70EFB3B490198FCF706FBC6E7304634
:10B4E800013350F80ACD42F808CCD0F804C042F82D
:10B4F80004CC0089108051809180D1801181BEE7F1
:10B50800002384F8C532AA880DF10F012046FFF701
:10B518007FFE00287FF472AF9DF80F30002B3FF4B8
:10B528002FAF32E0762303FB0CF1122303FB071342
:10B53800B0F80AE023447645BFF434AFC189A1F5D9
:10B548002451082908D8DFE801F014170507070770
:10B5580007071A0081899982998A39B1D98A29B14C
:10B56800198B19B1598B00297FF41CAF01360630AD
:10B57800E1E78189D982EFE781891983ECE781893D
:10B588005983E9E701238DF80F30AA8801214EE796
:10B59800B1F8CA3282889A4201BF002381F8C832C2
:10B5A8004FF6FF73A1F8CA32EAE600BF0C57002035
:10B5B8004CCF02000CCF0200E0D80200FFD80200F6
:10B5C80044D902008AD9020090DF7047A5DF70478E
:10B5D800B5DF70477FB50023ADF80810ADF80A1045
:10B5E8006A4602A9064603930093ADF80430FFF7B4
:10B5F800EBFF054600B3124B124CE41AE408FDF7C2
:10B6080027FE240444F0010403460F49324620462D
:10B61800FCF777FABDF80020BDF8023052EA0301C2
:10B6280003D00A492046FCF76CFABDF804201AB189
:10B6380007492046FCF75CFA284604B070BD00BFF5
:10B648000CCF02006CCF0200F0D902003ADA0200F7
:10B6580079DA020078B14FF0171303601B230371E6
:10B668001723C380038141F61B3200230161438104
:10B678008281184670470E207047000013B50346B4
:10B6880080880C46B8B91A88242A00F0958014D806
:10B69800112A71D0232A00F09D80102A3BD0A37A6A
:10B6A8004BB1E1880020FFF791FF002840F0988017
:10B6B8004FF48073638102B010BD3A2A64D0552AD2
:10B6C800EDD1DB88C988A072172B38BF17238B42AE
:10B6D80028BF0B462381FFF77BFF60B1FDF7B8FD5C
:10B6E800484B4949024649481B1ADB081B0443F0EA
:10B6F8000100FCF7FDF9E37A002BD0D12369002B78
:10B70800CDD040F6772200922289ADF80420694610
:10B7180020469847C3E7DB7B0A790A73012B13D0CD
:10B72800022B14D0E18823898B4205D20020FFF731
:10B738004DFF70B90123E372217B637B8B42AED24C
:10B748000020FFF747FFAAE70B88E380EAE74B886A
:10B75800FBE7112802D10123A372EDE7FDF778FD7D
:10B76800284B2B49024629481B1ADB081B0443F0C7
:10B778000100FCF7BDF9DFE71723CB800B8141F609
:10B788001B3348818B818AE75B89CA88934228BF2B
:10B798001346172B0A6938BF17230B814AB1C97A98
:10B7A80039B140F677210091ADF80430694620465A
:10B7B80090470023638172E71A7A0B694A73002B5A
:10B7C8003FF46DAF4DF67A218DF8050000918DF8A4
:10B7D80004209CE7197A237B994228BF1946B0E7D1
:10B7E80011283FF468AFFDF733FD064B08490246C0
:10B7F80006481B1ADB081B0443F00100FCF778F924
:10B8080059E700BF6CCF020000DB02000CCF02003A
:10B81800CFDA02009BDF70479DDF70479EDF7047DD
:10B82800A1DF7047A3DF7047AEDF704730B50488EB
:10B8380000239AB2944206D9456835F813508D42D0
:10B8480003F10103F5D1104630BD8B6910B50C46E4
:10B858001988102912D80231FDF747FB606078B1CA
:10B86800A16900230222FDF782FBA26960681288A1
:10B87800E1690223FDF77BFB002010BD0920FCE7EE
:10B888000420FAE710B50C46C98A10290AD8FDF732
:10B898002CFB606040B1E28AA1690023FDF767FBD9
:10B8A800002010BD0920FCE70420FAE7F0B58BB0B2
:10B8B800002204460DF10601C068124EFDF71FFC78
:10B8C800142502460AB10BB0F0BDBDF80670A36896
:10B8D80005FB073702A93846FDF711FC38B10022ED
:10B8E800E0680DF10601FDF70AFC0246EAE79DF85B
:10B8F800083056F8233013B10398FDF7E0FA002218
:10B90800E8E700BFACDB0200F7B505460C4C0D4874
:10B918000092241AE40824040B460F4616460A49E6
:10B928002A7844F00100FCF7F6F8AB6833B1E9680F
:10B938003A46304603B0BDE8F040184703B0F0BDC2
:10B9480074CF02000CCF02003CDB0200F0B58FB0D0
:10B958000D46012206A90646FDF7D1FB044690B91B
:10B968009DF81830052B65D8DFE803F0030F1C2479
:10B97800292EBDF82A20BDF828102846FFF750FFC9
:10B988000446112C40D10FB0F0BD02A90798BDF8AC
:10B998002E200C910023FDF7F4FA0AA92846FFF798
:10B9A80041FFEDE7BDF828100DF12A022846FFF700
:10B9B80031FFE5E70AA92846FFF72EFFE0E70AA9C5
:10B9C8002846FFF72BFFDBE70DF1060402AB214603
:10B9D80007980D9302220023FDF7D3FABDF806203D
:10B9E8000D9907980C940223FDF7CBFA0AA928466B
:10B9F800BDF80670FFF718FF04460028C1D1BDF84E
:10BA08000630BB4218BF0C249DF818200F4B53F882
:10BA1800223013B10798FDF752FA002206A93046E2
:10BA2800FDF76DFB002CAED02246294606A8FFF78D
:10BA38006BFFA8E70648074B07491B1ADB081B04DE
:10BA480043F00200FCF750F8DEE700BFACDB020071
:10BA58000CCF020074CF020086DB02002DE9F84308
:10BA68000F461446054620B94FF00E084046BDE87B
:10BA7800F8830029F8D0FFF719FF3B78052B6AD81F
:10BA880021462846FFF7D2FE2B88834263D014262E
:10BA98004643A8683044FDF72BFB002860D03B786C
:10BAA800052B3BD8DFE803F00311171E242A7A8AF6
:10BAB800398A2046FFF7B4FE112851D058B3024600
:10BAC80021463846FFF720FF25E007F11001204600
:10BAD800FFF7A8FEF0E7398A07F112022046FFF7C0
:10BAE80099FEE9E707F110012046FFF795FEE3E725
:10BAF80007F110012046FFF791FEDDE7BB6907F16A
:10BB080010012046B3F80080FFF78EFE30BBBB69FA
:10BB18001B8843450DD14FF00008A7E71B4B1C4875
:10BB28001C49C01AC008000440F00200FBF7DCFF03
:10BB3800F1E70C20C3E72869002895D039469847D3
:10BB48008046A0B192E73B7859F82330BBB17868BA
:10BB5800FDF7B5F913E04FF0070887E71128AED1D4
:10BB68000D4A3B7852F823309146002BE3D1A86860
:10BB780039463044FDF766FA80460028E3D1A868C4
:10BB880021463044FFF7E2FE70E700BF0CCF020009
:10BB980074CF020086DB0200ACDB020037B50C462E
:10BBA80008B301B30588112D15D181882046FFF708
:10BBB8003DFE2388ADF80600834214D0112D14D120
:10BBC80063684FF6FF7223F810200DF10601E06854
:10BBD800FDF738FA07E0A5F130031F2BE5D9A5F1E9
:10BBE80050031F2BE1D903B030BDA368142202FB18
:10BBF8000030FFF7ABFEF6E78ADF70478BDF704750
:10BC08008CDF704730B5037889B004460D464BB3D6
:10BC1800837A0193FFF7F2FF1422002103A800F0B2
:10BC280086FDA21C019B04F10C01A81CFFF7E8FF8C
:10BC38000D4B0E4905460E481B1ADB081B0443F042
:10BC480003000190FBF750FF06230A4901988DF87D
:10BC58000C302A460495FBF74BFF1DB1E3690BB185
:10BC680003A8984709B030BD5CCF0200C4DB0200CE
:10BC78000CCF0200CFDB0200007BC0F3C00070478E
:10BC8800F0B503460C4600284ED0C261002938D0D2
:10BC98000A7902700A7B82720A68FAB100F10C050F
:10BCA80002F10807106851682E4603C60832BA42E6
:10BCB8003546F7D1106830609288B280A168C1B16A
:10BCC8000A68C3F802204A68C3F8062003F1200274
:10BCD8001A641F22A3F844200020F0BDC26802F0B5
:10BCE800E30242F4200242F48272C26050220261EE
:10BCF800E4E706225A8018225A604FF4C8721A8163
:10BD0800E4E7C268017002F0E30242F4200242F460
:10BD18008272C2605022026106224280182242606A
:10BD28004FF4C8720281D1E70E20D6E730B5044639
:10BD380087B030B31422002101A800F0F8FCFFF707
:10BD48005DFF04F1400104F10C00FFF755FF0E4BB5
:10BD580004460E481B1ADB0834F008054FEA034076
:10BD680009D00B49224640F00100FBF7C1FE2546E9
:10BD7800284607B030BD074940F00300FBF7B4FE82
:10BD8800F6E70E25F4E700BF5CCF02000CCF0200F7
:10BD9800E5DB020009DC02002DE9F04F07468DB013
:10BDA80037F8083B1D2B04460E4621D008D8102B27
:10BDB80000F0BE801B2B00F0A4800DB0BDE8F08F12
:10BDC800202BFAD11422002107A800F0B0FCF26958
:10BDD800002AF2D03868796805238DF81C3008AB42
:10BDE80003C30C36397A0B96197007A89047E4E715
:10BDF8001422002107A800F09AFC06F10C030B930B
:10BE0800237A1B0767D5A18C206A0922FEF7F6FF63
:10BE1800514BDFF85CE11D68E27A237B94F80DB0A2
:10BE2800A17B94F810C005938046E07B4FF0000991
:10BE3800A94532DDC5EBC509DFF834A154F80A3F3E
:10BE48004AF809300AEB090EB4F80490AEF80490E9
:10BE5800A4798EF80640404C059B013525603F4C7F
:10BE68003F4D641BE408240444F00304CDE9020CAC
:10BE7800CDE900B120463B49FBF759FE3A49404617
:10BE880000F0AAFC38BB394942462046FBF730FE91
:10BE980039463046FFF7B6FE8FE79EF801A0924577
:10BEA80014D19EF802A0059B9A450FD19EF803A0D5
:10BEB800DA450BD19EF804A08A4507D19EF805A063
:10BEC800824503D19EF806A0E24504D009F1010994
:10BED8000EF1070EACE73046FFF7CEFE06F1400143
:10BEE80060B102238DF81C3007A8F3690897059103
:10BEF800984705990020FFF77FFEC9E7FFF77CFE0A
:10BF08005BE71422002107A800F011FC227A012A1D
:10BF18007FF453AFF369002B3FF44FAF04210C3685
:10BF28008DF81C100B968DF8202007A8984744E739
:10BF38001422002107A800F0FAFB07238DF81C3013
:10BF4800A388ADF8243006F10C030B93F369089726
:10BF5800002BEAD131E700BF305700205CCF020048
:10BF68000CCF020012DC02003CDC020041DC0200C3
:10BF78003457002062DF7047CB6803B11847704719
:10BF88002DE9F0430A7885B00346002A39D18C8818
:10BF980041F22350844234D18C79187C844230D1C8
:10BFA80001208DF8040091F808E04888BDF80C607D
:10BFB800BDF80A50BDF80840ADF80600174610460F
:10BFC80041F2245841F2255986451DD80FB1ADF8E4
:10BFD8000C601AB1ADF80A50ADF8084019884FF650
:10BFE800FF72914209D05A683AB95A882AB9029818
:10BFF800BDF80C20C3F80200DA809A6801A9184637
:10C00800904705B0BDE8F083B1F80EC0C44506D02E
:10C01800CC4501D1CE8A012701301231D4E7CD8A2F
:10C028000C8B0122F8E70000F0B5194A87B002AD81
:10C0380004460B4602F1100C2F46106851682E4634
:10C0480003C6083262453546F7D1FCB1F3B1196829
:10C05800E1B15A68D2B100209B68A1604FF6FF7524
:10C06800C4E900506261E36004F110013846FFF74B
:10C0780081FF48B9237C8DF8063001A841F223538B
:10C08800ADF80430FFF748F907B0F0BD0E20FBE724
:10C0980060DC02001FB503460846D9B1D3B11A883F
:10C0A800112A19D0392A15D109889A888A4211D1BA
:10C0B8005C8981888C420DD1D98901290AD11B7CE0
:10C0C8008DF8083002218DF804108368ADF8062039
:10C0D80001A9984704B010BD9A880B889A4202BFFC
:10C0E8004FF6FF720023C1E90023F3E700B58BB0D8
:10C0F800E8B102884FF6FF739A421AD00E49CDE98B
:10C1080004104188ADF81A104FF40031079101A9C5
:10C11800012308914069ADF8043002A98DF8083070
:10C128008DF81830FFF79AFC0BB05DF804FB0E2071
:10C13800FAE70820F8E700BF81BF020010B58AB00F
:10C1480004468DF8071010B302884FF6FF739A4221
:10C158001FD02022002102A800F0E9FA01238DF85F
:10C1680008300D4B22886069CDE90434E388ADF8C6
:10C178001A300DF1070308934FF48033079302A98F
:10C1880002238DF81830FFF769FC0AB010BD0E20A5
:10C19800FBE70820F9E700BF81BF020010DF704706
:10C1A80013B5044609496846FCF7F7FF019808B932
:10C1B80002B010BDD0E900212046904718B168466A
:10C1C800FCF7F5FFF2E71120F2E700BF7CDC020084
:10C1D80013B5044607496846FCF7DFFF019B0BB916
:10C1E80002B010BD2046D3E9002190476846FCF70D
:10C1F800DEFFF3E794DC02000B4991F816335A0985
:10C20800EC231341DB0706D5084B9A683AB94FF47B
:10C2180080030B60704742F20200FBF78BBF1A687D
:10C2280042F480021A60704700E100E0CC50002020
:10C23800F7B5194F3C7864BB184E01252046357078
:10C24800FFF7AEFF112821D02046FFF7C1FF144B9E
:10C258008DF80340186801900DF10300FCF75AF9B6
:10C26800104901A8FFF79AFF0446B0FA80F0400988
:10C2780038709DF80300FCF771F93CB90A4B34702B
:10C288001C70FFF7B9FF2846FFF7A2FF204603B04E
:10C29800F0BD0824FAE700BF695F0020685F00204E
:10C2A80078DC0200598102006A5F0020014B18788F
:10C2B800704700BF695F002007B508496846FCF76A
:10C2C8006CFF019B13B903B05DF804FBD3E90020B0
:10C2D80090476846FCF76BFFF3E700BF88DC020075
:10C2E800FFF7EABF60DF704769DF704761DF7047BB
:10C2F80030B5114B1B7891B0E3B1104D34240DF1DA
:10C30800020103A8ADF80240FFF7F0FF70B9294613
:10C3180001A8FCF742FF029B002BF0D003A8D3E949
:10C328000021904701A8FCF742FFF4E7052801D057
:10C33800FBF700FF11B030BD6B5F0020D8DE0200B4
:10C3480030B5054685B00C46002900F099804D4B64
:10C358000B600C22002101A800F0E9F908238DF8F0
:10C36800063022688DF80450062301A92020ADF874
:10C378000830FFF7B9FF60B1FCF76AFF424B434949
:10C38800024643481B1ADB081B0443F00100FBF775
:10C39800AFFB0C22002101A800F0C9F900238DF899
:10C3A8000530226840F2011301A94020ADF806309B
:10C3B800FFF79AFF60B1FCF74BFF334B3549024654
:10C3C80033481B1ADB081B0443F00100FBF790FB02
:10C3D8000C22002101A800F0AAF9012022688DF89A
:10C3E800040001A9FFF780FF60B1FCF731FF264B7D
:10C3F8002949024626481B1ADB081B0443F00100A2
:10C40800FBF776FB0C22002101A800F090F94FF40D
:10C41800B0632268019301A9A120FFF765FF60B10D
:10C42800FCF716FF184B1D49024619481B1ADB0872
:10C438001B0443F00100FBF75BFB0C22002101A861
:10C4480000F075F99DF8043022686FF3000301A924
:10C45800A0208DF80430FFF747FF034668B1FCF7CA
:10C46800F7FE094B0E49024609481B1ADB081B0454
:10C4780043F00100FBF73CFB0023184605B030BD34
:10C488000E23FAE7A843002084CF0200A0DC0200B4
:10C498000CCF0200E6DC020032DD02007EDD020085
:10C4A800CFDD020073B505460668FFF71BFF2B6852
:10C4B800B34204461DD91A481A4B1B491B1ADB08FC
:10C4C8001B0443F002000190FBF70EFB2B68174991
:10C4D80001983246FBF715FB4FF080532A68D3F8D2
:10C4E8000C31134901989B0203F100539A1AFBF788
:10C4F800FFFA2CB90F4B01221A70204602B070BD0A
:10C508002046FCF7A5FE074B0B49024604481B1AB8
:10C51800DB081B0443F00100FBF7EAFAEDE700BF74
:10C528000CCF020084CF020022DE020051DE02009E
:10C5380082DE02006B5F0020ACDE02004BDF70473A
:10C548001FB50D4C01A8FFF7F9FF70B9214602A8E5
:10C55800FCF723FE039B002BF4D00198D3E90021BC
:10C56800904702A8FCF723FEF4E7052801D0FBF763
:10C57800E1FD04B010BD00BFF0DE02007F2805D841
:10C58800034B185C034B5B5C1840704700207047F6
:10C5980008DF020088DF0200A0F16103192B98BFB1
:10C5A80020387047A0F14103192B98BF20307047FD
:10C5B8007F2805D8034B185C034B5B5C1840704719
:10C5C8000020704708DF020088DF0200A0F1610345
:10C5D800192B98BF20387047A0F14103192B98BF39
:10C5E800203070477F299ABF017001206FF02E001C
:10C5F80070475AB10A787F2A0AD800B10260002130
:10C6080019605960501A18BF012070470020704700
:10C618006FF02E00704738B504460846A26842B14C
:10C62800236861685D1C8D4208BF00208B4208D2D8
:10C63800D054E3682BB121686268914201D2214647
:10C64800984723680133236038BD70B54C1E09D460
:10C658001646C5B229463046FFF7DDFF013CB4F166
:10C66800FF3FF7D170BD10F0100F08D108B510F4D6
:10C67800007F14BF30202020FFF7E7FF08BD704778
:10C6880008B5034B5B689B681B68984708BD00BFEB
:10C69800C849002008B50921FFF7F2FF08BD037853
:10C6A80053B159B10144034613F8012F12B18B421B
:10C6B800FAD10B46181A70470346FBE70346F9E719
:10C6C80010B584B00C4611460290002203920194E2
:10C6D8001A46684600F0D8F804B010BD844640EA0F
:10C6E800010313F0030F18D18446202A0BD32DE938
:10C6F800F007B1E8F807A0E8F807A2F12002202A1D
:10C70800F7D2BDE8F007042A07D351F8043B40F8F4
:10C71800043BA2F10402042AF7D2002A05D011F83A
:10C72800013B00F8013B013AF9D160467047844665
:10C73800002A2DD010F0030F04D000F8011B013A95
:10C7480026D0F7E7C9B241EA012141EA0141202A8E
:10C7580012D3A2F120022DE9F0030B460C460D4638
:10C768000E460F4688468946A0E8FA03203AFBD2CF
:10C77800BDE8F00320320BD0042A05D340F8041B8F
:10C78800043A05D0042AF9D200F8011B013AFBD17A
:10C7980060467047024610F0030F16D111F0030FE0
:10C7A80013D12DE9F0004FF001374FF0803351F8E5
:10C7B800044BA4EB070525EA04051D4002D142F805
:10C7C800044BF4E7A1F10401F0BC11F8013B02F8B5
:10C7D800013B002BF9D1704710F0030F19D111F06C
:10C7E800030F16D12DE970004FF001364FF080335A
:10C7F80050F8044B51F8045BAC4205D1A4EB060594
:10C8080025EA04051D40F3D0A0F10400A1F10401BC
:10C8180070BC10F8012B11F8013BD21A01D1002B82
:10C82800F7D11046704700F1010110F0030F11D045
:10C8380010F8012B002A23D010F0030F0AD010F8AB
:10C84800012B002A1CD010F0030F03D010F8012B85
:10C85800002A15D02DE970004FF001324FF08033D7
:10C8680050F8044BA4EB020525EA04051D4000D14D
:10C87800F6E7A0F1040070BC10F8012B002AFBD1E8
:10C88800A0EB0100704700002DE9F04F89B0074682
:10C898000392002303600C4614F8011B002900F0E2
:10C8A800FA82DFF814B5E9E2002507E05E2868D1CE
:10C8B80045F4805501E045F040051C46234613F831
:10C8C800010B3028F2D81F2837D9A0F12002102AEE
:10C8D80033D801A151F822F0BFC8020043C90200B1
:10C8E80043C9020025C9020043C9020043C9020026
:10C8F80043C902002BC9020043C9020043C9020010
:10C9080043C9020031C9020043C9020037C9020005
:10C9180043C9020043C902003DC9020045F0800531
:10C92800CBE745F40045C8E745F02005C5E745F0E5
:10C938001005C2E745F40075BFE72A2821D1039AFC
:10C94800111D0391D2F800A0BAF1000FBCBFCAF1C3
:10C95800000A45F010051878A31C2AEAEA7A2E285E
:10C9680026D00021742847D07A2845D06C2800F0BA
:10C97800A8804C2800F0AB80682800F0B8801C46DE
:10C988003DE0A0F13002D2B2092A88BF4FF0000A78
:10C99800E3D84FF0000A0AEB8A0A303800EB4A0A5B
:10C9A80013F8010BA0F13002D2B2092AF3D9D4E767
:10C9B80018782A280AD1039A111D0391116858780A
:10C9C80002330029CEDB45F48075CBE70133A0F1B3
:10C9D8003002D2B2092A88BF0021F4D8002101EB25
:10C9E8008101303800EB410113F8010BA0F130024E
:10C9F800D2B2092AF3D9E4E71C4614F8010B00283F
:10CA080000F05582A0F12503DBB2532B62D8A0F1C8
:10CA18002503532B5ED8DFE813F076005D005D0038
:10CA28005D005D005D005D005D005D005D005D0016
:10CA38005D005D005D005D005D005D005D005D0006
:10CA48005D005D005D005D005D005D005D005D00F6
:10CA58005D005D005D005D005D005D005D005D00E6
:10CA68005D005D005D005D005D005D005D005D00D6
:10CA78005D005D005D005D005D005D005D005D00C6
:10CA8800EB005D005D005D005D005D005D005D0028
:10CA98005D005D005D007B0020015D005D005D00C4
:10CAA8005D0020015D005D005D005D0095000E01E8
:10CAB800D1005D005D00A6005D0019015D005D000C
:10CAC800ED001C4614F8010B45F0010597E745F009
